:100000000C942E010C94FD080C94D2080C94A708B3
:100010000C947C080C9451080C9426080C94FB0753
:100020000C94D0070C944D010C9428090C944D01AC
:100030000C944D010C944D010C944D010C944D0108
:100040000C9486070C944D010C944D010C944D01B9
:100050000C944D010C944D010C944D010C944D01E8
:100060000C944D010C944D010C944D010C944D01D8
:100070000C944D010C944D010C944D010C944D01C8
:100080000C944D010C944D010C944D015103000052
:10009000000000130D0000000000000101C08000FE
:1000A000000000000000000000060000000000004A
:1000B0000000000000000000000000000000000040
:1000C0000000000000003F000000000000000000F1
:1000D0000000000000000000000000000000000020
:1000E0000000000000000000000000000000000010
:1000F00000000000000000000000000002001400EA
:10010000030014000400140005001400060014008D
:100110000700140008001400090014000A0014006D
:100120000B0014000C0014000D0014000E0014004D
:100130000F0008001000080011000800120008005D
:10014000130008001400080015000800160008003D
:10015000170008001800080019000800010014002A
:10016000010014000100140001001400010014003B
:1001700000801F0000811F00FF000000FF00000042
:10018000FF000000FF000000FF000000FF00000073
:10019000FF000000FF000000FF00000000003A0028
:1001A00037003400310022006100640000003B0091
:1001B00038003500320023006200650005050505A2
:1001C00005050505020202020202020207070404F5
:1001D00004040404040407070303030303030303E1
:1001E00007010101010101010106060606060606D6
:1001F000060102040810204080010204081020407B
:10020000800810010204081020408001020102044D
:1002100008102040800480402010080402010102E0
:100220000408102040800000000A0B0C00000000B1
:1002300000000104050600000000000000000000AE
:1002400000000000000000000000000000000000AE
:1002500000000000000000000000000011241FBE8C
:10026000CFEFD0E1DEBFCDBF11E0A0E0B1E0E4E42C
:10027000F5E100E00BBF02C007900D92AC38B1076A
:10028000D9F721E0ACE8B1E001C01D92AA3CB20769
:10029000E1F70E9475090C94A00A0C940000E82F65
:1002A000F0E0E055FE4F8085861739F06087618B5E
:1002B0008091B20183608093B2010895262F30E0CF
:1002C0009091B6019078691729F09091B2019C60E5
:1002D0009093B2013695322F222737952795822B9E
:1002E0008093B6018093B7010895089580E090E06F
:1002F000892B29F08091AF0183FD0C9400000895B3
:10030000009731F16091B3017091B401861797079E
:1003100009F06DC041504A30D8F4E42FF0E0ED56BA
:10032000FE4F0C94970A9D01A901B401C401CB01B1
:10033000D201D901E001E701EF018091B80128174E
:1003400039F02093B8018091B20181608093B201AD
:1003500008959091B90180EF820F292B28239217DD
:10036000B9F32093B901EFCF3091B90140E1249F57
:10037000C0011124832B2295207F215F822338170F
:1003800039F38093B901DFCF8091BA01281701F3C7
:100390002093BA01D8CF8091BB012817C9F22093CE
:1003A000BB01D1CF8091BC01281791F22093BC01F1
:1003B000CACF8091BD01281759F22093BD01C3CF48
:1003C0008091BE01281721F22093BE01BCCF8091FD
:1003D000BF01281709F4BCCF2093BF01B4CF80918F
:1003E000C001281709F4B4CF2093C001ACCF3091DD
:1003F000B5013F773817190609F0AACF4230A1F0AE
:1004000018F4413031F008954330D1F0443049F1CF
:1004100008958091C101281709F49ACF2093C10152
:100420008091B201826092CF9091C20180EF820FE1
:10043000292B2823921709F48BCF2093C201F0CFE8
:100440003091C20140E1249FC0011124832B2295E9
:10045000207F215F8223381709F47ACF8093C2016D
:10046000DFCF8091C301281709F472CF2093C30115
:10047000D7CF0F93009721F16091B3017091B40130
:100480008617970729F5822F90E03091B6013078D2
:10049000231729F02091B20124602093B2010D317D
:1004A00089F00F3779F00F3081F49C013695322FA7
:1004B0002227379527958091B601822B8093B6012C
:1004C0000F9108954093B601F0CF1092B601EDCF91
:1004D0003091B5013F773817190691F7822F90E0D8
:1004E0003091B7013078231729F02091B2012860AC
:1004F0002093B2019695982F882797958795482B3A
:100500004093B701DDCF81508F3108F07CC0E82FD8
:10051000F0E0E357FD4F0C94970AAC02AE02B00234
:10052000B202B402B602B802BA02BC02BE02C402EF
:10053000C802CA02CC02D202D602DA02DE02E0020D
:10054000E402E802EA02EC02EE02F002F402F8022F
:10055000FA02FC02FE020203C5980895C4980895A9
:10056000C3980895C2980895C09808951F98089553
:1005700097980895969808959598089580916500A4
:100580008F7E80936500089580916500877FF9CF05
:10059000C6980895C798089580916200877F8093D8
:1005A00062000895809162008B7FF9CF8091620094
:1005B0008D7FF5CF809162008E7FF1CFDE98089518
:1005C000809165008D7FDDCF809165008E7FD9CFD2
:1005D000A9980895AA980895AB980895AC9808959D
:1005E000809162008F7DDBCF809162008F7BD7CFBF
:1005F000DF980895AF980895AE98089580916200AD
:100600008F7ECDCFAD9808951F93CF93DF93EC01EC
:100610008A819B8110E0892BE9F48D819E8110E015
:10062000892B69F588818E7F8883DF91CF911F9117
:100630000895812F90E0880F991FEA81FB81E80FD0
:10064000F91F0190F081E02D80818F7780830E94D7
:1006500083021F5F8981181760F3DFCF812F90E03D
:10066000880F991FED81FE81E80FF91F0190F0813D
:10067000E02D80818F7780830E9483021F5F8C81B1
:10068000181760F3CFCFFC0190819570953019F465
:10069000CF010C9404030895FC01208120FF03C0C6
:1006A00022FF0C940403089581508F3108F07CC020
:1006B000E82FF0E0E25AFC4F0C94970A7D037F0389
:1006C000810383038503870389038B038D038F03D2
:1006D000950399039B039D03A303A703AB03AF03F8
:1006E000B103B503B903BB03BD03BF03C103C50316
:1006F000C903CB03CD03CF03D303C59A0895C49A8E
:100700000895C39A0895C29A0895C09A08951F9AA9
:100710000895979A0895969A0895959A08958091C4
:100720006500806180936500089580916500886010
:10073000F9CFC69A0895C79A08958091620088609B
:10074000809362000895809162008460F9CF809167
:1007500062008260F5CF809162008160F1CFDE9A05
:100760000895809165008260DDCF80916500816091
:10077000D9CFA99A0895AA9A0895AB9A0895AC9AE8
:100780000895809162008062DBCF80916200806476
:10079000D7CFDF9A0895AF9A0895AE9A08958091C1
:1007A00062008061CDCFAD9A08959091B201882307
:1007B00061F090619093B20181E00E9454038091B6
:1007C0008A00887F80938A0008959F7E9093B2016B
:1007D00081E00E948302109288001092890080912B
:1007E0008A008460EFCFCF93C82F809198018C1737
:1007F00019F08C2F0E94D503C0939801CC23F9F0F7
:100800002FB7F8948091920190919301A091940157
:10081000B09195012FBF482F392F2A2F8B2F40934E
:10082000990130939A0120939B0180939C018091C0
:1008300098018C1749F08C2FCF910C94D50340E090
:1008400030E020E080E0EBCFCF9108950F931F932D
:10085000CF938C01C0E0F8018181C81720F0CF91BF
:100860001F910F9108958C2F90E0880F991FD80148
:100870001296ED91FC91E80FF91F0190F081E02DA7
:100880008081982F906890838F770E945403CF5F68
:10089000E2CF1F93CF93DF93EC01288120FD15C099
:1008A00022FF13C0322F3160388321FF09C02A8113
:1008B0003B81232B51F0DF91CF911F910C942604A3
:1008C0002D813E8110E0232BB9F4DF91CF911F9150
:1008D0000895812F90E0880F991FED81FE81E80F28
:1008E000F91F0190F081E02D8081982F906890830E
:1008F0008F770E9454031F5F8C81181750F3E5CF48
:10090000CF93DF93EC018881982F9270691789F05B
:10091000662369F082608883888180FF0AC0CE01E7
:100920000E944303CE01DF91CF910C9449048D7F47
:10093000F2CFDF91CF9108951F93CF93DF93EC0116
:100940002881322F357099F4322F3160388321FF9E
:1009500009C02A813B81232B51F0DF91CF911F9158
:100960000C9426042D813E8110E0232BB9F4DF91F5
:10097000CF911F910895812F90E0880F991FED81ED
:10098000FE81E80FF91F0190F081E02D8081982F02
:10099000906890838F770E9454031F5F8C81181793
:1009A00050F3E5CFCF93DF93EC018881982F9270BD
:1009B000691789F0662369F082608883888180FFE7
:1009C0000AC0CE010E944C03CE01DF91CF910C945E
:1009D0009C048D7FF2CFDF91CF910895A89A8FE785
:1009E0009EE30197F1F700C00000A89808950C94C9
:1009F000EE040E94F303E6E9F1E081E087831086CC
:100A0000EFE9F1E088E0DF011D928A95E9F70895AA
:100A10001F93CF93DF93EC018091B20184FF0BC051
:100A20008FE090E00E947E0A182F80E190E00E9403
:100A30007E0A181306C0CE01DF91CF911F910C944E
:100A40007E0AFFCF0C940805CF93DF932091AC0171
:100A50003091AD012F3F320721F0C901DF91CF91D5
:100A600008958091AF0187FF2BC086FF0FC089E0FA
:100A700090E00E942205C82F81E090E00E942205AC
:100A80009C2F9093AD018093AC0115C089E090E05C
:100A90000E942205C82F81E090E00E94220590E488
:100AA000C99F90011124207C31708F73282B3093C3
:100AB000AD012093AC018091AC019091AD01CECFFE
:100AC00085FF0CC081E190E00E942205C82F82E1E1
:100AD00090E00E942205C05CDD0BD2CF81E090E067
:100AE0000E94220590E0CDCFCF93DF93D0E0C0E00D
:100AF000FE01E457FF4F6491CE010E94860A2196C1
:100B0000C03181E0D807A1F761E081E893E00E945D
:100B1000860AC0E0CF5F8C2F0E945403CF31D1F7FB
:100B2000DF91CF9108950C9474051F93CF93DF93B9
:100B3000EC01162F089779F4662319F10E947405C9
:100B400080E090E0892BB9F0612FCE01DF91CF9149
:100B50001F910C94000080E090E0892BA9F781E0C0
:100B6000C11590E1D90708F080E0111105C0DF91AF
:100B7000CF911F91089581E027972297C0F780E0D9
:100B8000F6CF80E090E0892BF9F681E0F0CF0F936B
:100B90001F93CF93DF93EC01162F8091B20184FF56
:100BA00025C0CF30D10561F48FE090E00E94860A25
:100BB0008FE090E0DF91CF911F910F910C947E0A0E
:100BC0008FE090E00E947E0A082F80E190E00E9472
:100BD0007E0A08130AC0C730D10531F0C830D105EC
:100BE00029F4183049F0FFCFFFCFFFCF612FCE019E
:100BF0000E94860ACE01DECF0E94740588E0DF9154
:100C0000CF911F910F9108958331910588F481311F
:100C1000910530F48130910519F08930910531F456
:100C20002FEF3FEF3093AD012093AC010C94C7053B
:100C30008D319105D9F7677F6093AF0120919601BF
:100C40002F73362F307C232B20939601E9CFBF9250
:100C5000CF92DF92EF92FF920F931F93CF93DF9388
:100C60008B01B42E690182FF23C083FF17C061E0AE
:100C7000C8010E9495058823D9F16B2DC8010E94F7
:100C800004068B1135C0F601DF91CF911F910F91B2
:100C9000FF90EF90DF90CF90BF90099460E0C80183
:100CA0000E949505882321F1C8010E942205E9CF01
:100CB000842F8770C1E0D0E07E0101C0EE0C8A95E0
:100CC000EAF7D42FD870CB010E942205C82FB4FEBA
:100CD0001CC061E0C8010E949505882349F0DD230E
:100CE00089F0CE296C2FC8010E9404068C1759F296
:100CF000DF91CF911F910F91FF90EF90DF90CF90F8
:100D0000BF900895E094CE21EDCF60E0C8010E942D
:100D10009505882369F3CE21DD2319F0C111B3CFE6
:100D2000E7CFCC2309F4AFCFE3CFAF92BF92DF92EE
:100D3000EF92FF920F931F93CF93DF937C01162FB7
:100D4000C42FD22ED42FD07E8091960187FF2CC045
:100D5000D03EC1F5A0909701AA20A1F1B12CC50108
:100D60000E942205D82FC50101960E942205982FC6
:100D70008D2FE816F90631F56C2F70E0762F662777
:100D8000662773706D296F5F7F4F26E731E0402F34
:100D90008C2FDF91CF911F910F91FF90EF90DF90FB
:100DA000BF90AF900C94270680FD33C0D03609F475
:100DB00064C090F4D03209F449C0D03409F45DC065
:100DC000DD2381F1DF91CF911F910F91FF90EF9083
:100DD000DF90BF90AF900895D03A09F484C090F4AA
:100DE0002C2F2F7141E0D03869F7612FC701DF91B7
:100DF000CF911F910F91FF90EF90DF90BF90AF9038
:100E00000C948001D03C09F475C0D03E09F4B4CFF5
:100E1000D9CF0E9424058E159F0541F2E114F104FB
:100E200029F2D0CF8C2F8E7069F680E090E0892B6C
:100E300049F28C2F8170DF91CF911F910F91FF901C
:100E4000EF90DF90BF90AF900C940000CF71CF3146
:100E500009F0B8CF4D2D4F7761F0413061F02D2D65
:100E6000221F2227221F0DE1612FC7010E94390294
:100E7000A9CF41E0F4CF40E0F2CF2C2F30E08C2F0F
:100E80008F71813029F030F0803121F0813109F506
:100E900040E001C041E095E0359527959A95E1F74E
:100EA00021700DE1612FC7010E94390280E090E0BE
:100EB000892B09F487CF4C2F612FC701DF91CF9188
:100EC0001F910F91FF90EF90DF90BF90AF900C9427
:100ED0000000C901880F991F8E71C4FB442740F997
:100EE000482B4250D8CF2C2F2F7043E0C4FF7DCF2A
:100EF00042E07BCFCF71CE3131F0CF3109F062CFFC
:100F00002D2D45E072CF2D2D44E06FCF1F920F9213
:100F10000FB60F9211242F933F938F939F93AF930C
:100F2000BF938091920190919301A0919401B0910F
:100F300095013091910123E0230F2D3768F126E8C8
:100F4000230F0296A11DB11D209391018093920160
:100F500090939301A0939401B093950180918D019A
:100F600090918E01A0918F01B09190010196A11DE9
:100F7000B11D80938D0190938E01A0938F01B0934A
:100F80009001BF91AF919F918F913F912F910F90C1
:100F90000FBE0F901F9018950196A11DB11DD4CFC3
:100FA0001F920F920FB60F9211240BB60F922F9330
:100FB0003F934F935F936F937F938F939F93AF93E1
:100FC000BF93EF93FF93E0914C01F0914D01099590
:100FD000FF91EF91BF91AF919F918F917F916F9111
:100FE0005F914F913F912F910F900BBE0F900FBECD
:100FF0000F901F9018951F920F920FB60F92112409
:101000000BB60F922F933F934F935F936F937F9302
:101010008F939F93AF93BF93EF93FF93E0914A0118
:10102000F0914B010995FF91EF91BF91AF919F9185
:101030008F917F916F915F914F913F912F910F9081
:101040000BBE0F900FBE0F901F9018951F920F921E
:101050000FB60F9211240BB60F922F933F934F931D
:101060005F936F937F938F939F93AF93BF93EF9310
:10107000FF93E0914801F09149010995FF91EF91AB
:10108000BF91AF919F918F917F916F915F914F91A0
:101090003F912F910F900BBE0F900FBE0F901F909E
:1010A00018951F920F920FB60F9211240BB60F9244
:1010B0002F933F934F935F936F937F938F939F9360
:1010C000AF93BF93EF93FF93E0914601F0914701F7
:1010D0000995FF91EF91BF91AF919F918F917F9172
:1010E0006F915F914F913F912F910F900BBE0F9099
:1010F0000FBE0F901F9018951F920F920FB60F9270
:1011000011240BB60F922F933F934F935F936F93DE
:101110007F938F939F93AF93BF93EF93FF93E09150
:101120004401F09145010995FF91EF91BF91AF9175
:101130009F918F917F916F915F914F913F912F91EF
:101140000F900BBE0F900FBE0F901F9018951F921F
:101150000F920FB60F9211240BB60F922F933F935D
:101160004F935F936F937F938F939F93AF93BF93AF
:10117000EF93FF93E0914201F09143010995FF91B4
:10118000EF91BF91AF919F918F917F916F915F91FF
:101190004F913F912F910F900BBE0F900FBE0F906C
:1011A0001F9018951F920F920FB60F9211240BB635
:1011B0000F922F933F934F935F936F937F938F93F0
:1011C0009F93AF93BF93EF93FF93E0914001F09112
:1011D00041010995FF91EF91BF91AF919F918F913F
:1011E0007F916F915F914F913F912F910F900BBE27
:1011F0000F900FBE0F901F9018951F920F920FB671
:101200000F9211240BB60F922F933F934F935F933E
:101210006F937F938F939F93AF93BF93EF93FF93BE
:10122000E0913E01F0913F010995FF91EF91BF914F
:10123000AF919F918F917F916F915F914F913F916E
:101240002F910F900BBE0F900FBE0F901F9018950F
:101250001F920F920FB60F9211240BB60F922F937D
:101260003F934F935F936F937F938F939F93AF932E
:10127000BF93CF93DF93EF93FF937894CEE4D1E0C5
:10128000E991F991808187FF08C08F7720918C01C7
:101290009181921720F10E94540381E0CC38D80745
:1012A00079F786E984BD80918C018F5F8032D1F01F
:1012B00080938C01FF91EF91DF91CF91BF91AF911E
:1012C0009F918F917F916F915F914F913F912F915E
:1012D0000F900BBE0F900FBE0F901F9018950E949D
:1012E0008302DBCF10928C01E5CF789483B78C64B6
:1012F00083BF87B7816087BF82E08EBD8EB5816076
:101300008EBD8FB581608FBD85B5846085BD85B587
:10131000806485BD80918A00836080938A0080917B
:101320008B00816080938B0087E886B91AB80FB66E
:10133000F894A89581B5886181BD11BC0FBE1ABA19
:1013400017BA14BA11BA12B8109261001092640060
:1013500042EF51E0FA0164918DEB91E0FC012491A0
:10136000222399F030E0220F331FF901E456FE4F9B
:10137000A591B491F901E455FE4F259134912FB711
:10138000F8943C91632B6C932FBFE7E2F2E0249139
:10139000FA014491FC018491882341F12223C1F098
:1013A00021502C30A8F4E22FF0E0E752F64F0C94D5
:1013B000970A7A0A7A0AE809E509620A650A680A58
:1013C000E809E8096C0A720A760A9FB59F779FBD03
:1013D000E82FF0E0EE0FFF1FE455FE4FA591B4910A
:1013E0008FB7F8949C91492B4C938FBFA09ABD9ACC
:1013F000BC9ABB9ABA9AB89A179A8F9A8E9A8D9A73
:1014000080916400806180936400809164008860B2
:1014100080936400BE9ABF9A809161008860809337
:10142000610080916100846080936100809161001F
:10143000826080936100809161008160809361008F
:10144000D69A8091640082608093640080916400E9
:10145000816080936400A19AA29AA39AA49A809131
:10146000610080628093610080916100806480935C
:101470006100D79AA79AA69A8091610080618093B3
:101480006100A59A0EE411E0F801C191D1918F019C
:101490008881982F906898838F770E945403FFEF7C
:1014A00029E688E1F15020408040E1F700C00000CB
:1014B00088818F7788830E94830291E00C38190716
:1014C00019F7E0CF9FB59F7D82CF9FB5977F7FCFE4
:1014D00095B59F7D95BD7CCF90918B009F77909324
:1014E0008B0076CF90918B009F7DF9CF90918B00F0
:1014F000977FF5CF93B79F7D93BF6ACFE199FECFDA
:101500009FBB8EBBE09A99278DB30895262FE19952
:10151000FECF9FBB8EBBE09A01970DB2021631F051
:101520002DBB0FB6F894E29AE19A0FBE0895EE0F24
:10153000FF1F0024001C0BBE0790F691E02D0994BC
:04154000F894FFCF4D
:101544001FFF1EFF1DFF1CFF1BFF1AFF19FF18FFC3
:1015540017FF16FF15FF14FF13FF12FF11FF10FFF3
:101564000FFF0EFF0DFF0CFF0BFF0AFF09FF08FF23
:1015740007FF06FF05FF04FF03FF02FF01FF7501DC
:1015840000000000000000000000000000003C011A
:101594003A01380136013401320130012E012C01A7
:1015A4002A01280126012401220120011E011C0117
:1015B4001A01180116011401120110010E010C0187
:0C15C4000A0108010601040102010001F7
:00000001FF
