:100000000C945E010C94260F0C94FB0E0C94D00EF5
:100010000C94A50E0C947A0E0C944F0E0C94240E96
:100020000C94F90D0C947D010C94510F0C947D01EE
:100030000C947D010C947D010C947D010C947D0148
:100040000C94AF0D0C947D010C947D010C947D01FA
:100050000C947D010C947D010C947D010C947D0128
:100060000C947D010C947D010C947D010C947D0118
:100070000C947D010C947D010C947D010C947D0108
:100080000C947D010C947D010C947D0151030000C2
:10009000000000130D0000000000000101C08000FE
:1000A000000000000000000000060000000000004A
:1000B0000000000000000000000000000000000040
:1000C0000000000000003F000000000000000000F1
:1000D0000000000000000000000000000000000020
:1000E0000000000000000000000000000000000010
:1000F00000000000000000000000000002001400EA
:10010000030014000400140005001400060014008D
:100110000700140008001400090014000A0014006D
:100120000B0014000C0014000D0014000E0014004D
:100130000F0008001000080011000800120008005D
:10014000130008001400080015000800160008003D
:10015000170008001800080019000800010014002A
:10016000010014000100140001001400010014003B
:1001700000801F0000811F00FF000000FF00000042
:10018000FF000000FF000000FF000000FF00000073
:10019000FF000000FF000000FF0000000000000A58
:1001A0000B0C000000000000010405060000000028
:1001B000000000000000000000000000000000003F
:1001C000000000000000000000000000000000002F
:1001D000007000740078007C008000840088008C2F
:1001E000009000940098009C00A000A400A800AC1F
:1001F00000B000B400B800BC00C000C400C800CC0F
:1002000000D000D400D800DC00E000E400E800ECFE
:1002100000F000F400F800FC000001040108010CEB
:100220000100003B00380035003200230062006509
:100230000000003A00370034003100220061006401
:100240000001020408102040800102040810204030
:1002500080081001020408102040800102010204FD
:100260000810204080048040201008040201010290
:1002700004081020408000003900360033003000B0
:10028000210020006300050505050505050502029E
:100290000202020202020707040404040404040424
:1002A000070703030303030303030701010101011C
:1002B00001010106060606060606060011241FBEF9
:1002C000CFEFD0E1DEBFCDBF11E0A0E0B1E0EAE3C7
:1002D000F5E300E00BBF02C007900D92A239B10711
:1002E000D9F723E0A2E9B1E001C01D92AF3FB20708
:1002F000E1F70E94AA0F0C949B1A0C940000E82FBF
:10030000F0E0E952FC4F8085861739F06087618BF9
:100310008091D90383608093D9030895262F30E01C
:100320009091DD039078691729F09091D9039C6032
:100330009093D9033695322F222737952795822B14
:100340008093DD038093DE030895CF93DF9390E0E5
:10035000FC01EF5BFD4F24918A579D4FFC01849176
:100360008823C9F090E0880F991FFC01EF5CFD4FD6
:10037000A591B491FC01EF5DFD4FC591D491611140
:100380000DC09FB7F8948C91209582238C9388811F
:10039000282328839FBFDF91CF910895623051F4C5
:1003A0009FB7F8943C91822F809583238C93E881AA
:1003B0002E2BEFCF8FB7F894EC912E2B2C938FBF71
:1003C000EACF3FB7F8948091B4019091B501A09124
:1003D000B601B091B70122B706B600FE05C02F3FA7
:1003E00019F00196A11DB11D3FBFBA2FA92F982F5B
:1003F0008827BC01CD01620F711D811D911D42E056
:10040000660F771F881F991F4A95D1F70895883086
:1004100008F5E82FF0E0EE0FFF1FE25CFE4F71835E
:1004200060838150873068F4E82FF0E0E65EFD4F8E
:100430000C9429192B023802460254025B02660210
:10044000720280916A008C7F482B40936A0089B7C2
:10045000816089BF089580916A00837F440F551F92
:10046000440F551F482B40936A0089B78260F1CF33
:1004700080916A008F7C74E0440F551F7A95E1F7F4
:10048000482B40936A0089B78460E3CF80916A006B
:100490008F7366E0440F551F6A95E1F7482B409330
:1004A0006A0089B78860D5CF8AB78C7F482B4ABF4E
:1004B00089B78061CECF8AB7837F440F551F440F21
:1004C000551F482B4ABF89B78062C3CF8AB78F7C3C
:1004D00024E0440F551F2A95E1F7482B4ABF89B7FE
:1004E0008064B7CF8AB78F7396E0440F551F9A95F3
:1004F000E1F7482B4ABF89B78068ABCFFF920F93D3
:100500001F93CF93DF930E94E101209196013091D8
:100510009701EB01C21BD30B2091BC013091BD01AF
:10052000C217D30708F461C04091C4015091C501BE
:100530004130510561F0E091ED01F091EE01208133
:100540003091EF0123233091BA0123134EC07093F1
:100550009701609396010091BE011091BF01423056
:10056000510509F419C14330510509F454C1413012
:10057000510561F480919501813009F449C0D8F1A9
:10058000833009F486C0843009F4CFC08091C4015F
:100590009091C501019749F1C017D10708F073C1C7
:1005A000809193018F5F809393018B30F0F081E015
:1005B00090E09093C5018093C40141E050E06EE764
:1005C00072E08091EB010E9407021092BA01109232
:1005D000950182E590E09093BF018093BE0183E294
:1005E00090E09093BD018093BC01DF91CF911F916A
:1005F0000F91FF900895C017D10730F481E08093E8
:100600009501C0939401C2CF84E080939501BECF41
:10061000C017D107E0F510929501809193018F5F8B
:1006200080939301209194018C2F0C2E000C990B38
:10063000821B910927FD939597FF03C091958195A2
:100640009109499794F21092C5011092C40182E970
:1006500090E09093BF018093BE0182E590E090937B
:10066000BD018093BC0110929301F090BB014F2D0E
:1006700050E06EE772E08091EB010E9407028091EA
:10068000EF0193E0F91229C08093BA017FCF83E094
:10069000BCCFC017D10718F51092C5011092C40144
:1006A00082E990E09093BF018093BE0182E590E0E3
:1006B0009093BD018093BC0110929301F090BB0117
:1006C0004F2D50E06EE772E08091EB010E9407022F
:1006D0008091EF0133E0F316B9F280E0D5CF90912D
:1006E000BB01933009F482E08093BB0182E090E08B
:1006F0009093C5018093C40182E990E09093BF017B
:100700008093BE0182E590E09093BD018093BC018F
:100710001092CA01809193018093CB011092C7017E
:100720001092C9011092C801C9CFC017D107A8F40F
:100730001092C5011092C40182E990E09093BF012C
:100740008093BE0182E590E09093BD018093BC014F
:10075000109293011092C70188CF82E090E09093AD
:10076000C5018093C40182E990E09093BF0180931A
:10077000BE0182E590E09093BD018093BC01109290
:10078000CA01809193018093CB011092C70110920E
:10079000C9011092C80169CF9091C7019F5F9093E2
:1007A000C7018091C801880FC017D107E0F080937E
:1007B000C801983009F0F0CEE091CA01E630A9F402
:1007C0001092C5011092C40182E990E09093BF019C
:1007D0008093BE0182E590E09093BD018093BC01BF
:1007E0001092C701D3CE8160E2CF83E090E0909376
:1007F000C5018093C4019091C80181E08E0F809360
:10080000CA01F0E0EC53FE4F90878091C90189271F
:100810008093C901BBCEC017D10728F51092C5013E
:100820001092C4011092C70182E990E09093BF0139
:100830008093BE0182E590E09093BD018093BC015E
:100840008091C9018111ACCE88E0EAECF1E0A2ED23
:10085000B1E001900D928A95E1F781E08093C601A5
:100860001092930193CE8091CA01863009F4A8CFEB
:1008700082E090E09093C5018093C4011092C7017B
:100880001092C80183CE10929301AFCE0895CF93FA
:10089000DF93DC01EC91F0E0EE0FFF1FEA58FD4F13
:1008A000C591D491988111968C91982381E009F497
:1008B00080E0DF91CF910895DC011296ED91FC91DB
:1008C000139711969C911197808161110EC090959C
:1008D000982390831496ED91FC9115979081119631
:1008E0008C918095892380830895982B9083089517
:1008F00080E090E0892B29F08091F30183FD0C9436
:1009000000000895009731F16091DA037091DB03E4
:100910008617970709F06DC041504A30D8F4E42F8C
:10092000F0E0EB56FB4F0C9429199F04AB04B6047E
:10093000C604CD04D404DB04E204E904F10480918C
:10094000DF03281739F02093DF038091D9038160FA
:100950008093D90308959091E00380EF820F292BB3
:1009600028239217B9F32093E003EFCF3091E003EF
:1009700040E1249FC0011124832B2295207F215F19
:100980008223381739F38093E003DFCF8091E103AE
:10099000281701F32093E103D8CF8091E2032817B1
:1009A000C9F22093E203D1CF8091E303281791F29B
:1009B0002093E303CACF8091E403281759F22093D0
:1009C000E403C3CF8091E503281721F22093E503C8
:1009D000BCCF8091E603281709F4BCCF2093E6032F
:1009E000B4CF8091E703281709F4B4CF2093E7032D
:1009F000ACCF3091DC033F773817190609F0AACF46
:100A00004230A1F018F4413031F008954330D1F074
:100A1000443049F108958091E803281709F49ACFEA
:100A20002093E8038091D903826092CF9091E903EB
:100A300080EF820F292B2823921709F48BCF209364
:100A4000E903F0CF3091E90340E1249FC001112474
:100A5000832B2295207F215F8223381709F47ACFD8
:100A60008093E903DFCF8091EA03281709F472CF5E
:100A70002093EA03D7CF0F93009721F16091DA0317
:100A80007091DB038617970729F5822F90E030914C
:100A9000DD033078231729F02091D90324602093B7
:100AA000D9030D3189F00F3779F00F3081F49C01B3
:100AB0003695322F2227379527958091DD03822B9B
:100AC0008093DD030F9108954093DD03F0CF1092E2
:100AD000DD03EDCF3091DC033F773817190691F72E
:100AE000822F90E03091DE033078231729F0209197
:100AF000D90328602093D9039695982F8827979536
:100B00008795482B4093DE03DDCF81508F3108F06D
:100B10007CC0E82FF0E0E157FA4F0C942919AE059C
:100B2000B005B205B405B605B805BA05BC05BE05E5
:100B3000C005C605CA05CC05CE05D405D805DC051B
:100B4000E005E205E605EA05EC05EE05F005F2052F
:100B5000F605FA05FC05FE0500060406C59808958D
:100B6000C4980895C3980895C2980895C0980895A8
:100B70001F980895979808959698089595980895C0
:100B8000809165008F7E8093650008958091650057
:100B9000877FF9CFC6980895C7980895809162001D
:100BA000877F809362000895809162008B7FF9CFE8
:100BB000809162008D7FF5CF809162008E7FF1CFB2
:100BC000DE980895809165008D7FDDCF809165006E
:100BD0008E7FD9CFA9980895AA980895AB980895C3
:100BE000AC980895809162008F7DDBCF8091620088
:100BF0008F7BD7CFDF980895AF980895AE9808956A
:100C0000809162008F7ECDCFAD9808951F93CF93D2
:100C1000DF93EC018A819B8110E0892BE9F48D81BF
:100C20009E8110E0892B69F588818E7F8883DF9112
:100C3000CF911F910895812F90E0880F991FEA812D
:100C4000FB81E80FF91F0190F081E02D80818F7703
:100C500080830E9485051F5F8981181760F3DFCFAD
:100C6000812F90E0880F991FED81FE81E80FF91F19
:100C70000190F081E02D80818F7780830E9485052F
:100C80001F5F8C81181760F3CFCFFC0190819570A6
:100C9000953019F4CF010C9406060895FC012081CB
:100CA00020FF03C022FF0C940606089581508F3167
:100CB00008F07CC0E82FF0E0E05AF94F0C942919B5
:100CC0007F06810683068506870689068B068D06C4
:100CD0008F06910697069B069D069F06A506A90608
:100CE000AD06B106B306B706BB06BD06BF06C10614
:100CF000C306C706CB06CD06CF06D106D506C59AD4
:100D00000895C49A0895C39A0895C29A0895C09AFE
:100D100008951F9A0895979A0895969A0895959A16
:100D200008958091650080618093650008958091A9
:100D300065008860F9CFC69A0895C79A0895809192
:100D400062008860809362000895809162008460F0
:100D5000F9CF809162008260F5CF8091620081605E
:100D6000F1CFDE9A0895809165008260DDCF809199
:100D700065008160D9CFA99A0895AA9A0895AB9A7F
:100D80000895AC9A0895809162008062DBCF8091D3
:100D900062008064D7CFDF9A0895AF9A0895AE9A23
:100DA0000895809162008061CDCFAD9A08959091B1
:100DB000D903882361F090619093D90381E00E9468
:100DC000560680918A00887F80938A0008959F7ECE
:100DD0009093D90381E00E948505109288001092BB
:100DE000890080918A008460EFCFCF93C82F8091D3
:100DF000DC018C1719F08C2F0E94D706C093DC0100
:100E0000CC23F9F02FB7F8948091C0019091C101E3
:100E1000A091C201B091C3012FBF482F392F2A2FB3
:100E20008B2F4093DD013093DE012093DF0180930F
:100E3000E0018091DC018C1749F08C2FCF910C944C
:100E4000D70640E030E020E080E0EBCFCF9108957E
:100E50000F931F93CF938C01C0E0F8018181C817D5
:100E600020F0CF911F910F9108958C2F90E0880F63
:100E7000991FD8011296ED91FC91E80FF91F01908E
:100E8000F081E02D8081982F906890838F770E9469
:100E90005606CF5FE2CF1F93CF93DF93EC012881FB
:100EA00020FD15C022FF13C0322F3160388321FF8F
:100EB00009C02A813B81232B51F0DF91CF911F91F3
:100EC0000C9428072D813E8110E0232BB9F4DF918B
:100ED000CF911F910895812F90E0880F991FED8188
:100EE000FE81E80FF91F0190F081E02D8081982F9D
:100EF000906890838F770E9456061F5F8C81181729
:100F000050F3E5CFCF93DF93EC018881982F927057
:100F1000691789F0662369F082608883888180FF81
:100F20000AC0CE010E944506CE01DF91CF910C94FC
:100F30004B078D7FF2CFDF91CF9108951F93CF9311
:100F4000DF93EC012881322F357099F4322F316014
:100F5000388321FF09C02A813B81232B51F0DF9187
:100F6000CF911F910C9428072D813E8110E0232BF7
:100F7000B9F4DF91CF911F910895812F90E0880FF0
:100F8000991FED81FE81E80FF91F0190F081E02D9E
:100F90008081982F906890838F770E9456061F5FFC
:100FA0008C81181750F3E5CFCF93DF93EC01888144
:100FB000982F9270691789F0662369F082608883A0
:100FC000888180FF0AC0CE010E944E06CE01DF91CB
:100FD000CF910C949E078D7FF2CFDF91CF91089532
:100FE000A89A8FE79EE30197F1F700C00000A89848
:100FF00008950C94F0071F93CF93DF93EC01809139
:10100000D90384FF0BC08FE090E00E94EF18182FE7
:1010100080E190E00E94EF18181306C0CE01DF9126
:10102000CF911F910C94EF18FFCF0C94FB07CF9337
:10103000DF932091F0013091F1012F3F320721F031
:10104000C901DF91CF9108958091F30187FF2BC0F3
:1010500086FF0FC089E090E00E941508C82F81E04C
:1010600090E00E9415089C2F9093F1018093F0016D
:1010700015C089E090E00E941508C82F81E090E03B
:101080000E94150890E4C99F90011124207C3170C2
:101090008F73282B3093F1012093F0018091F001A0
:1010A0009091F101CECF85FF0CC081E190E00E94CC
:1010B0001508C82F82E190E00E941508C05CDD0B86
:1010C000D2CF81E090E00E94150890E0CDCFCF9381
:1010D000863823E0920719F138F4813823E092072B
:1010E000D9F0CF910C94EF18873823E09207D1F014
:1010F000883823E09207A9F786E893E00E94EF186A
:10110000C82F87E893E00E94EF1890E02FEFC29F6E
:10111000800D911D1124E5CF81E893E0E2CF86E8B0
:1011200093E0DFCF87E893E0DCCF0E94F506EAED9D
:10113000F1E081E087831086E3EEF1E088E0DF01F3
:101140001D928A95E9F708950F931F93CF93DF932C
:10115000EC01162FC63883E0D80781F150F4C1386E
:1011600083E0D807F9F0612FCE010E94F718CE0175
:101170001FC0C73883E0D80741F1C83883E0D807DB
:1011800091F786E893E00E94EF18082F87E893E034
:101190000E94EF18C82FD0E08FEF089FC00DD11D1F
:1011A0001124E1CF81E893E00E94F71881E893E0F1
:1011B000DF91CF911F910F910C94EF1886E893E087
:1011C0000E94F71886E893E0F3CF87E893E00E9447
:1011D000F71887E893E0ECCFCF93DF93D0E0C0E03F
:1011E000FE01E457FF4F6491CE010E94F71821964B
:1011F000C03181E0D807A1F761E081E893E00E9467
:10120000F718C0E0CF5F8C2F0E945606CF31D1F780
:10121000DF91CF9108950C94EC081F93CF93DF9347
:10122000EC01162F089779F4662319F10E94EC0857
:1012300080E090E0892BB9F0612FCE01DF91CF9152
:101240001F910C94000080E090E0892BA9F781E0C9
:10125000C11590E1D90708F080E0111105C0DF91B8
:10126000CF911F91089581E027972297C0F780E0E2
:10127000F6CF80E090E0892BF9F681E0F0CF0F9374
:101280001F93CF93DF93EC01162F8091D90384FF36
:1012900025C0CF30D10561F48FE090E00E94F718AF
:1012A0008FE090E0DF91CF911F910F910C94EF1898
:1012B0008FE090E00E94EF18082F80E190E00E94FC
:1012C000EF1808130AC0C730D10531F0C830D10576
:1012D00029F4183049F0FFCFFFCFFFCF612FCE01A7
:1012E0000E94F718CE01DECF0E94EC0888E0DF9163
:1012F000CF911F910F9108958331910588F4813129
:10130000910530F48130910519F08930910531F45F
:101310002FEF3FEF3093F1012093F0010C943F0940
:101320008D319105D9F7677F6093F3012091DA0140
:101330002F73362F307C232B2093DA01E9CFBF9215
:10134000CF92DF92EF92FF920F931F93CF93DF9391
:101350008B01B42E690182FF23C083FF17C061E0B7
:10136000C8010E940D098823D9F16B2DC8010E9484
:101370007C098B1135C0F601DF91CF911F910F9140
:10138000FF90EF90DF90CF90BF90099460E0C8018C
:101390000E940D09882321F1C8010E941508E9CF98
:1013A000842F8770C1E0D0E07E0101C0EE0C8A95E9
:1013B000EAF7D42FD870CB010E941508C82FB4FECD
:1013C0001CC061E0C8010E940D09882349F0DD239B
:1013D00089F0CE296C2FC8010E947C098C1759F224
:1013E000DF91CF911F910F91FF90EF90DF90CF9001
:1013F000BF900895E094CE21EDCF60E0C8010E9437
:101400000D09882369F3CE21DD2319F0C111B3CF73
:10141000E7CFCC2309F4AFCFE3CFAF92BF92DF92F7
:10142000EF92FF920F931F93CF93DF937C01162FC0
:10143000C42FD22ED42FD07E8091DA0187FF2CC00A
:10144000D03EC1F5A090DB01AA20A1F1B12CC501CD
:101450000E941508D82FC50101960E941508982FE3
:101460008D2FE816F90631F56C2F70E0762F662780
:10147000662773706D296F5F7F4F28E734E0402F38
:101480008C2FDF91CF911F910F91FF90EF90DF9004
:10149000BF90AF900C949F0980FD33C0D03609F403
:1014A00064C090F4D03209F449C0D03409F45DC06E
:1014B000DD2381F1DF91CF911F910F91FF90EF908C
:1014C000DF90BF90AF900895D03A09F484C090F4B3
:1014D0002C2F2F7141E0D03869F7612FC701DF91C0
:1014E000CF911F910F91FF90EF90DF90BF90AF9041
:1014F0000C948204D03C09F475C0D03E09F4B4CFFA
:10150000D9CF0E9417088E159F0541F2E114F1040E
:1015100029F2D0CF8C2F8E7069F680E090E0892B75
:1015200049F28C2F8170DF91CF911F910F91FF9025
:10153000EF90DF90BF90AF900C940000CF71CF314F
:1015400009F0B8CF4D2D4F7761F0413061F02D2D6E
:10155000221F2227221F0DE1612FC7010E943B0598
:10156000A9CF41E0F4CF40E0F2CF2C2F30E08C2F18
:101570008F71813029F030F0803121F0813109F50F
:1015800040E001C041E095E0359527959A95E1F757
:1015900021700DE1612FC7010E943B0580E090E0C2
:1015A000892B09F487CF4C2F612FC701DF91CF9191
:1015B0001F910F91FF90EF90DF90BF90AF900C9430
:1015C0000000C901880F991F8E71C4FB442740F9A0
:1015D000482B4250D8CF2C2F2F7043E0C4FF7DCF33
:1015E00042E07BCFCF71CE3131F0CF3109F062CF05
:1015F0002D2D45E072CF2D2D44E06FCF4F925F929D
:101600006F927F928F929F92AF92BF92CF92DF9212
:10161000EF92FF920F931F93CF93DF93C091B80186
:10162000D091B9018091AB01811116C02FB7F89408
:101630008091C0019091C101A091C201B091C301FC
:101640002FBF8093A7019093A801A093A901B09305
:10165000AA0181E08093AB0180919F01811111C0AB
:101660000E94E101605171098109910960939B0118
:1016700070939C0180939D0190939E0181E08093E3
:101680009F010E94E1012B013C018FB7F894C090AB
:10169000C001D090C101E090C201F090C3018FBFA2
:1016A0008091A701BC2CB81A80919B0190919C015C
:1016B0009201281B390BC90120919A01211169C09F
:1016C000FE0130E020E045815681C417D50709F0BE
:1016D00056C045E0429F8001439F100D11240E5FCC
:1016E0001F4F0C0F1D1F10939901009398010115B6
:1016F000110509F458C0F801148213828031910554
:1017000008F492C1853F914008F0B4C18D8D9E8D43
:101710000E944704F801808381E080939A014092FF
:101720009B0150929C0160929D0170929E01F6E097
:10173000FB1508F47DC18D8D9E8D0E944704A090FD
:101740009801B090990190919A01E92FE695E6955C
:10175000E695292F277041E050E060E070E004C07A
:10176000440F551F661F771F2A95D2F7EA0DFB2DF0
:10177000F11D811129C040958081482327C02F5F2A
:101780003F4F35962530310509F09DCF10E000E040
:10179000AACF26E02B1508F44BC18031910518F033
:1017A000853F914040F2DF91CF911F910F91FF90C3
:1017B000EF90DF90CF90BF90AF909F908F907F90F1
:1017C0006F905F904F9008958081482B408381E017
:1017D000890F80939A0140929B0150929C016092E4
:1017E0009D0170929E01982F9770E9F68031E9F47F
:1017F000F5018081873780F4EB8DFC8D309721F4E3
:10180000BC8EAB8E07C0FC01838194810097D9F711
:10181000B482A38210929A01C092A701D092A8012B
:10182000E092A901F092AA01BECF8831A9F7F50193
:1018300011811F778DEF782E710EF7E2F71580F08A
:1018400088818130A1F4812E912C1D3220F51B322C
:1018500028F4112351F121E0271508F18DE026C06D
:1018600085ED810F883250F48881823061F3E091F8
:101870009801F0919901D483C383CCCF8DEA810F75
:10188000883220F48881833091F7DDCF8EEF810F8D
:101890008230C8F6ECCF8DEA810F8230F8F2C401B5
:1018A0008F579C4F0E94670801C08881F501028113
:1018B00090819B3739F19F3709F46CC09737B9F69F
:1018C0000813D5CF61E08D8D9E8D0E945C048D8DB7
:1018D0009E8D0E949E0F8FE697E10197F1F700C061
:1018E0000000AD8DBE8D1496ED91FC911597808111
:1018F00011969C91892B808360E08D8D9E8D0E9436
:101900005C04B5CF202F2870302F377004FF35C00E
:101910001D3278F51B3208F0AACF91E0971508F038
:10192000A6CF41E050E060E070E004C0440F551FD6
:10193000661F771F3A95D2F7182F142B211103C079
:10194000142F10951823612FC4018F579C4F0E94AC
:10195000A40818138CCF61E08D8D9E8D0E945C04CD
:101960008D8D9E8D0E949E0FEFE6F7E13197F1F786
:10197000B6CF13551230A8F67ACF90E002C09595F5
:1019800087953A95E2F7817099272817190609F08B
:101990006ECF98CF1B32D9F190F51330C1F11430CE
:1019A00009F465CF602FC4018F579C4F0E94A40893
:1019B00008131FC061E08D8D9E8D0E945C048D8D8B
:1019C0009E8D0E949E0F8FE697E10197F1F700C070
:1019D0000000AD8DBE8D1496ED91FC911597808120
:1019E00011969C91892B808360E08D8D9E8D0E9445
:1019F0005C0411113CCF043078F4088338CF1335E0
:101A000031F0143509F433CF1C3261F630CF083091
:101A100081F70E94EC089FCF61E081E893E00E948B
:101A2000A40881E0888323CFF6E0FB1508F0BBCE45
:101A300099E09B1508F0B7CEC092A701D092A801FB
:101A4000E092A901F092AA010091980110919901E8
:101A50008D8D9E8D0E944704F801808381E08093E4
:101A60009A0140929B0150929C0160929D0170925C
:101A70009E0199CE26E02B15D8F295CE9F92AF927B
:101A8000BF92CF92DF92EF92FF920F931F93CF936B
:101A9000DF937C016B01942E81E0F701481328C08D
:101AA000A280B380E7012196A114B10431F562E070
:101AB00070E081E090E00E9446198C01009731F0BF
:101AC000FC01D182C08288818F5F8883F1E09F1200
:101AD00042C0F70113830283DF91CF911F910F91D1
:101AE000FF90EF90DF90CF90BF90AF909F900895C0
:101AF000A580B680E7012496D7CF88818F5F888341
:101B0000C82FD0E062E070E0CE010E9446198C013F
:101B100020E0AE0141505109822F90E084179507D3
:101B200064F0C150D048CC0FDD1FC00FD11FD98247
:101B3000C882C5010E94FE19C9CF880F991FF501FF
:101B4000E80FF91F60817181800F911FFC01718383
:101B500060832F5FE1CFF70116830583BDCF1F920E
:101B60000F920FB60F9211242F933F938F939F9351
:101B7000AF93BF938091C0019091C101A091C20128
:101B8000B091C3013091B30123E0230F2D3768F1E9
:101B900026E8230F0296A11DB11D2093B301809367
:101BA000C0019093C101A093C201B093C301809181
:101BB000B4019091B501A091B601B091B701019621
:101BC000A11DB11D8093B4019093B501A093B601FE
:101BD000B093B701BF91AF919F918F913F912F919A
:101BE0000F900FBE0F901F9018950196A11DB11D6B
:101BF000D4CF1F920F920FB60F9211240BB60F92F3
:101C00002F933F934F935F936F937F938F939F9304
:101C1000AF93BF93EF93FF93E0914C01F0914D018F
:101C20000995FF91EF91BF91AF919F918F917F9116
:101C30006F915F914F913F912F910F900BBE0F903D
:101C40000FBE0F901F9018951F920F920FB60F9214
:101C500011240BB60F922F933F934F935F936F9383
:101C60007F938F939F93AF93BF93EF93FF93E091F5
:101C70004A01F0914B010995FF91EF91BF91AF910E
:101C80009F918F917F916F915F914F913F912F9194
:101C90000F900BBE0F900FBE0F901F9018951F92C4
:101CA0000F920FB60F9211240BB60F922F933F9302
:101CB0004F935F936F937F938F939F93AF93BF9354
:101CC000EF93FF93E0914801F09149010995FF914D
:101CD000EF91BF91AF919F918F917F916F915F91A4
:101CE0004F913F912F910F900BBE0F900FBE0F9011
:101CF0001F9018951F920F920FB60F9211240BB6DA
:101D00000F922F933F934F935F936F937F938F9394
:101D10009F93AF93BF93EF93FF93E0914601F091B0
:101D200047010995FF91EF91BF91AF919F918F91DD
:101D30007F916F915F914F913F912F910F900BBECB
:101D40000F900FBE0F901F9018951F920F920FB615
:101D50000F9211240BB60F922F933F934F935F93E3
:101D60006F937F938F939F93AF93BF93EF93FF9363
:101D7000E0914401F09145010995FF91EF91BF91E8
:101D8000AF919F918F917F916F915F914F913F9113
:101D90002F910F900BBE0F900FBE0F901F901895B4
:101DA0001F920F920FB60F9211240BB60F922F9322
:101DB0003F934F935F936F937F938F939F93AF93D3
:101DC000BF93EF93FF93E0914201F0914301099596
:101DD000FF91EF91BF91AF919F918F917F916F9103
:101DE0005F914F913F912F910F900BBE0F900FBEBF
:101DF0000F901F9018951F920F920FB60F921124FB
:101E00000BB60F922F933F934F935F936F937F93F4
:101E10008F939F93AF93BF93EF93FF93E091400114
:101E2000F09141010995FF91EF91BF91AF919F9181
:101E30008F917F916F915F914F913F912F910F9073
:101E40000BBE0F900FBE0F901F9018951F920F9210
:101E50000FB60F9211240BB60F922F933F934F930F
:101E60005F936F937F938F939F93AF93BF93EF9302
:101E7000FF93E0913E01F0913F010995FF91EF91B1
:101E8000BF91AF919F918F917F916F915F914F9192
:101E90003F912F910F900BBE0F900FBE0F901F9090
:101EA00018951F920F920FB60F9211240BB60F9236
:101EB0002F933F934F935F936F937F938F939F9352
:101EC000AF93BF93CF93DF93EF93FF937894C4E5E1
:101ED000D1E0E991F991808187FF08C08F77209147
:101EE00092019181921720F10E94560681E0C23939
:101EF000D80779F786E984BD809192018F5F80329F
:101F0000D1F080939201FF91EF91DF91CF91BF913A
:101F1000AF919F918F917F916F915F914F913F9181
:101F20002F910F900BBE0F900FBE0F901F90189522
:101F30000E948505DBCF10929201E5CFDC0114965B
:101F4000ED91FC911597908111968C918095892344
:101F500080830895CF93DF9300D01F92CDB7DEB773
:101F6000789483B78C6483BF87B7816087BF82E032
:101F70008EBD8EB581608EBD8FB581608FBD85B5FC
:101F8000846085BD85B5806485BD80918A0083604D
:101F900080938A0080918B00816080938B0087E81A
:101FA00086B91AB80FB6F894A89581B5886181BD35
:101FB00011BC0FBE1ABA17BA14BA11BA12B81092DD
:101FC00061001092640061E081E00E94A501EDE9EA
:101FD000F1E09491E2E4F2E02491E7E8F2E0849108
:101FE000882341F19923C1F091509C30A8F4E92F46
:101FF000F0E0E350F04F0C942919CF12CF120C10DF
:102000000910B712BA12BD120C100C10C112C7126F
:10201000CB129FB59F779FBDE82FF0E0EE0FFF1F1B
:10202000EF5DFD4FA591B4918FB7F894EC912E2BF5
:102030002C938FBFA09ABD9ABC9ABB9ABA9AB89AB1
:10204000179A8F9A8E9A8D9A8091640080618093FE
:10205000640080916400886080936400BE9ABF9A97
:10206000809161008860809361008091610084604C
:102070008093610080916100826080936100809113
:102080006100816080936100D69A809164008260D3
:102090008093640080916400816080936400A19AC1
:1020A000A29AA39AA49A80916100806280936100B1
:1020B00080916100806480936100D79AA79AA69A64
:1020C00080916100806180936100A59A14BC15BC69
:1020D00085B5887F85BD87B7806487BF85B58360F8
:1020E00085BDF1EDCF2EF1E0DF2EA4E5EA2EA1E0D3
:1020F000FA2EB2E9AB2EB1E0BB2E17E0912EF6011D
:1021000005911491C8010E94EF188983C8010196B6
:102110000E94EF188A830E5F1F4FC8010E94EF18BC
:10212000803228F06FE1C8010E9408198FE1D701C1
:102130000D911D917D01F8018183FA81F03809F438
:1021400032C2F13809F438C2F11113C03981399D16
:10215000900111242C503E4F3B832A8341E0B8016B
:10216000C9010E943E0D40E0B8018A819B810E9416
:102170003E0D82E0C80ED11CAE14BF0409F0BFCFE3
:1021800085E190E00E94EF1880FF05C09091FB016F
:1021900094609093FB0181FF05C0909102029460CE
:1021A0009093020282FF05C090910902946090937F
:1021B000090283FF05C09091100294609093100271
:1021C00084FF05C09091170294609093170285FFD9
:1021D00005C090911E02946090931E0286FF05C078
:1021E0009091250294609093250287FF05C080910D
:1021F0002C02846080932C0286E190E00E94EF180C
:1022000080FF05C09091F40194609093F40182FFE7
:1022100005C09091330294609093330283FF05C010
:1022200090913A02946090933A0284FF05C0909195
:10223000410294609093410285FF05C0909148024D
:1022400094609093480286FF05C090914F0294607D
:1022500090934F0287FF05C080915602846080935F
:1022600056028DE190E00E94EF188093D7038CE135
:1022700090E00E94EF188093D8038DE190E00E94D7
:10228000EF1885FF9FC181E190E00E94EF188F73E6
:10229000A82FB0E0FA2FEE27FB83EA8382E190E0DB
:1022A0000E94EF182A813B81282B3B832A838A8155
:1022B0009B819093DB038093DA0383E190E00E949B
:1022C000EF188093DC0380E88093DD038093DE03C6
:1022D0008FE190E00E9462199B838A8385E1AA8145
:1022E000BB8111968C9386E090E00E946219DC011C
:1022F000E7E5F2E0E4911196EC931197ECE9F2E056
:1023000024912C9330E0220F331FF901EF5CFD4F35
:102310008591949113969C938E931297F901EF5D9A
:10232000FD4F8591949115969C938E931497EA8115
:10233000FB81B68FA58FF093FA03E093F90381E850
:1023400093E00E946708AA81BB818C93843048F097
:1023500061E081E893E00E94A40881E0EA81FB81CA
:1023600080832A813B813093B9012093B801D90140
:1023700011968C918F3FA1F060E00E94A501EA8147
:10238000FB8181819CEF980F943020F08251843042
:1023900008F08FEF42E050E06EEF7AE00E94070213
:1023A00060E0AA81BB815D968D919C910E945C0446
:1023B0002A813B81F9013683258333872287308B3D
:1023C0002787358B248B328F218F148E138E82E0DA
:1023D0008093EB0184E18093EC01EAE9F2E0E4917F
:1023E000F0E0EE0FFF1FEA58FD4F85919491909316
:1023F000EE018093ED01E5E5F2E0E491E093EF0179
:1024000060E084E10E94A501E4ECF1E086E1DF01F7
:102410001D928A95E9F782E990E09093BF0180933D
:10242000BE0182E590E09093BD018093BC011092C3
:10243000DA011092DB018FEF9FEF9093F10180930F
:10244000F0011092F20183E08093BB018091EF01D3
:102450008093BA0143E050E06EE772E08091EB01B7
:102460000E9407028DE190E00E941508682F6F73AB
:102470008DE190E00E947C098093F30163E187E0A5
:1024800090E00E947C096DE088E090E00E947C0969
:1024900080E00E94950885B7837E85BF85B78062FE
:1024A00085BFB1E0B98320E0C22E20E0D22E30E01B
:1024B000432E30E0532E40E0642E40E0742E50E076
:1024C000E52E50E0F52E60E0A62E60E0B62EE091FD
:1024D000F903F091FA03FB83EA83038CF48DE02D7A
:1024E000309709F080C0F981F13009F0C0C08091C7
:1024F000DC018823F1F02FB7F8948091C00190910E
:10250000C101A091C201B091C3012FBF4091DD0173
:102510005091DE016091DF017091E001841B950B09
:10252000A60BB70B4597A105B10518F080E00E94F6
:1025300095088091C601882309F499C0F89488E031
:10254000E2EDF1E0A1EFB3E001900D928A95E1F7A1
:102550001092C60178948091F103E82FF0E0ED50DD
:10256000FC4F863008F0C4C211928F5FFACF9FB53E
:102570009F7D51CD9FB5977F4ECD95B59F7D95BDE4
:102580004BCD90918B009F7790938B0045CD909190
:102590008B009F7DF9CF90918B00977FF5CF93B7FC
:1025A0009F7D93BF39CD4981499DC001112440E0F1
:1025B000B8018C509E4FDBCD5981599DC00111242B
:1025C00041E0F6CF81E090E00E94EF18181634F059
:1025D00063E081E090E00E94F71883E0482F50E02C
:1025E0005B834A8364CE20E030E0232B21F06181BD
:1025F00080810E940000AA81BB815B96ED91FC91D5
:102600008081813409F4C7C108F022C18A3209F4FB
:102610001FC208F0FBC0843209F42AC188F4813259
:1026200009F4CEC1833209F4D4C1811114C0A0E0F1
:10263000B0E0AB2B09F42CC181810E94000028C1BD
:10264000863209F4D7C108F4E6C1883209F4F0C132
:10265000893209F4F6C183819481AA81BB81B48354
:10266000A3835C969C938E935B97BAE0B983809129
:10267000D90382FF20C084EF91E09B838A8315E415
:102680006091DD038091D70380FF91C46095661F40
:102690006627661F8A819B810E94D4071150AA81F8
:1026A000BB811796BB83AA831111EACF8091D9030E
:1026B0008B7F8093D9038091D90383FF21C0E4EFFE
:1026C000F1E0FB83EA8315E46091DE038091DC0393
:1026D00087FF6FC46095661F6627661F8A819B818E
:1026E0000E94820711502A813B81295F3F4F3B8323
:1026F0002A831111E9CF8091D903877F8093D90371
:102700008091D90380FF3EC007ED13E028EF822EB1
:10271000912C37E0332E911067C48091DF0384FF42
:102720004AC484EF91E00E949E078091DF0380FFFE
:1027300047C48BEF91E00E949E078091DF0381FFE9
:1027400044C482E092E00E949E078091DF0382FFF2
:1027500041C489E092E00E949E078091DF0383FFDD
:102760003EC480E192E00E949E0793940F5F1F4F4A
:10277000F8E08F0E29E09212CECF8091D9038E7FA0
:102780008093D9038091D90381FF3EC007ED13E008
:1027900088EF882E912C97E0392E9110AFC480914C
:1027A000E80384FF92C484EF91E00E944B0780917C
:1027B000E80380FF8FC48BEF91E00E944B0780916C
:1027C000E80381FF8CC482E092E00E944B07809175
:1027D000E80382FF89C489E092E00E944B07809160
:1027E000E80383FF86C480E192E00E944B07939444
:1027F0000F5F1F4FF8E08F0E29E09212CECF80912D
:10280000D903877F8093D903889561CE8E3209F4EE
:1028100034C158F48C3209F429C108F420C1E11400
:10282000F104B1F1618185E009C1803309F433C15C
:1028300008F42AC1813309F437C1803409F00BCF81
:10284000C114D10429F1618180E00E94000020C000
:10285000823609F469C068F5813509F4DCC088F472
:10286000833409F4A6C008F49DC0803509F0F3CE86
:10287000818160E087FF02C061E080580E948E0184
:1028800007C08E3509F417C160F4823509F0E3CE34
:10289000AA81BB815B96ED91FC915C9783819481C9
:1028A000DECE8036E1F1813609F0D5CE618181E05E
:1028B00038C0873609F444C058F48436D9F1B8F1E9
:1028C0008536D9F1863609F0C6CE618186E029C009
:1028D0008C3609F404C130F4883609F0BCCE61812D
:1028E00088E01FC08D3679F18E3609F0B4CEA38111
:1028F000B481109709F455C38C918F3649F6411471
:10290000510431F22181622F661F6627661F1196DE
:102910008C91B0E88B9FC0011124822B39C061815A
:1029200080E00E947F01B4CF618182E0FACF6181B3
:1029300083E0F7CF618184E0F4CF618185E0F1CF5E
:10294000618187E0EECF6181862F8F77411451043A
:1029500009F49ECF81111AC010E000E067FD0BC0A2
:102960000F5F1F4F0038110509F492CF60E0C801D6
:102970000E940000F5CF0F5F1F4F0038110509F4CA
:1029800087CF61E0C8010E940000F5CF607890E039
:102990000E9400007DCFC114D10409F479CF618178
:1029A00081E053CFC114D10409F472CF618182E078
:1029B0004CCFC114D10409F46BCF618183E045CFC2
:1029C00020E030E0232B09F463CF81810E940000D6
:1029D0005FCF40E050E0452B09F45ACF818187FD5D
:1029E00003C00E94000054CF819590E0919581959D
:1029F0009109F7CF80E090E0892B09F449CF8181DC
:102A000087FD03C00E94000043CF819590E091951F
:102A100081959109F7CF6114710409F439CF81814F
:102A200060E087FF02C061E080580E94000030CF64
:102A3000E114F10409F42CCF618180E00E940000D0
:102A400027CFE114F10409F423CF618181E0F6CFAF
:102A5000E114F10409F41CCF618182E0EFCFE114AD
:102A6000F10409F415CF618183E0E8CFE114F104AA
:102A700009F40ECF618184E0E1CFE114F10409F49F
:102A800007CF618186E0DACFE114F10409F400CFC9
:102A9000618187E0D3CFA114B10409F4F9CE61813B
:102AA00081E00E940000F4CEA114B10409F4F0CE3C
:102AB000618182E0F6CFA381B481109709F474C2DA
:102AC0008C918F3509F0E4CE20E030E0232B09F41F
:102AD000DFCE11969C9181810E940000D9CE40E00A
:102AE00050E0452B09F4D4CE81810E940000D0CE65
:102AF000E0E0F0E0EF2B21F081EF93E00E94000096
:102B00008091F303811117C09091F403911113C0C8
:102B100080E090E0892B19F080E00E940000809115
:102B2000DC01882321F081E00E94F506A0CD81E040
:102B30000E9495089CCD9091DC01992309F495C0E1
:102B40008057803108F08EC081E00E94F506F09138
:102B5000F103FA838091E301F8130AC04F2F50E08C
:102B600065EE71E083EF93E00E94871A892B61F094
:102B70001092E20188E0E1EFF3E0A3EEB1E0019012
:102B80000D928A95E1F773CD8091E2018F5F80937A
:102B9000E2012A81233009F04CC09091F303892F80
:102BA00087701091F403853029F41093E1010E949D
:102BB000F0075DCD843059F1282F30E0843010F5D6
:102BC0004091E1014423F1F0A42FA150BB0BAA0FC7
:102BD000BB1FAA0FBB1FA20FB31F1196BB83AA83F3
:102BE00093FF1AC061E08A819B810E940D098823AE
:102BF00009F43DCD612F8A819B810E947C091813C5
:102C000036CDD5CFF9013196FB83EA83E9CF2DE1AB
:102C100030E03B832A83E4CF60E08A819B810E947D
:102C20000D09882309F423CD8A819B810E94150810
:102C3000E6CF3A81343009F01ACD8091F303682F42
:102C400070E0762F6627662773709091F403692BE6
:102C50006F5F7F4F29EF37E04091F5038C700E9442
:102C60009F0905CD80E00E949508E091F303EF3FB6
:102C700061F48091F4038111FACC80E090E0892B1B
:102C800009F4F5CC0E940000F2CCE7FD0CC00091E5
:102C9000F6032091F5034091F40360E08E2F90E05D
:102CA0000E940D0AE4CCE03C08F06BC19091DA017F
:102CB00097FFDDCC8091F403282F30E0A9014095E7
:102CC0005095440F551F440F551F407C5170EF73B2
:102CD0004E2B5B834A8335952795522F5370352EA3
:102CE0002091F103253069F58C788C3051F50E94E4
:102CF0001708AA81BB818A179B0721F0AF3FB1401B
:102D000009F0B5CCF091F4032F2F30E0522F442777
:102D1000442753708091F503480F511D4F5F5F4F5B
:102D20005B834A831091F60361E0CA010E940D099A
:102D3000612F882309F49BCC8A819B810E947C09A6
:102D400096CC8A809B8051E0851A9108880C991C4A
:102D5000880C991C832884010F5F1F4F8091F2011A
:102D60008823F9F096FF41C0C80160E071E00E943D
:102D70001519682F81E090E00E947C09C80117FFB7
:102D800002C081509F4F692F89E090E00E947C092A
:102D900080E090E0892B19F0C8010E940000109299
:102DA000F2018091DA0180FD3CC08091F103843012
:102DB00009F052C08091F4038978813009F057CC32
:102DC0006091F50380E090E0892B19F0C8010E9422
:102DD000000080E090E0892B09F449CC4091F50394
:102DE000632DC8010E94000042CC6A817B816F7311
:102DF000772781E090E00E947C096A817B81E6E090
:102E000075956795EA95E1F789E090E00E947C0965
:102E100080E090E0892B19F28A819B810E9400005A
:102E2000BECF86FF0CC00E9417088017910709F4D7
:102E3000BCCF0D3F87E018070CF0B7CF18CC0E942D
:102E40001708AA81BB818A179B0709F4AECFAF3F51
:102E5000B14009F4AACF0BCC833079F54091F4034B
:102E6000F42FF1708F2E43FB992490F880E090E0CE
:102E7000892B39F04770292D6A817B81C8010E9416
:102E800000008091DA0186FF0BC080E090E0892B82
:102E900009F4EDCB492D682DC8010E940000E7CB55
:102EA00080E090E0892B09F4E2CB292D482D632D99
:102EB0008A819B810E940000DACB863009F0D7CB53
:102EC0008091F403982F9978913021F08F78803891
:102ED00009F0CDCB8091DA0186FF2BC00E94170844
:102EE0008017910711F58091F50390E0382F222784
:102EF000222733704091F603A42FA20FB32FB11DE8
:102F00001196BB83AA831091F703959587959595A4
:102F100087958370992782309105B1F0039709F066
:102F2000A6CB61E08A819B8101CF0D3F1740DCF683
:102F30009ECB0E941708EA81FB818E179F0799F2AA
:102F4000EF3FF14081F293CB14FF91CB61E08A8196
:102F50009B810E940D09882309F489CB8A819B817A
:102F60000E941508912F977061E070E001C0660F14
:102F70009A95EAF713FF02C0682BDECE60956823AE
:102F8000DBCEE83E08F073CBE05CFF0B8091F403EE
:102F90000091F7032091F6034091F50361E09E2F25
:102FA0007FCE3AE0398363CB4AE0498360CB6078D7
:102FB00071CB607893CB84EF91E00E944E06B5CB45
:102FC0008BEF91E00E944E06B8CB82E092E00E9427
:102FD0004E06BBCB89E092E00E944E06BECB80E15C
:102FE00092E00E944E06C1CB882D90E00596389E57
:102FF000A001399E500D11245B834A83CA018C5075
:103000009E4FD80118962C9120FF4AC00E949E071F
:103010008A819B8185509E4FF801208521FF43C006
:103020000E949E078A819B818E5F9D4FD8011896D2
:103030002C9122FF3BC00E949E078A819B81875F63
:103040009D4FF801208523FF34C00E949E078A818E
:103050009B81805F9D4FD80118962C9124FF2CC036
:103060000E949E078A819B81895E9D4FF801208581
:1030700025FF25C00E949E078A819B81825E9D4F0D
:10308000D80118962C9126FF1DC00E949E078A81A8
:103090009B818B5D9D4FF801208527FFA2CF63CBDD
:1030A0000E944E06B5CF0E944E06BCCF0E944E062F
:1030B000C4CF0E944E06CBCF0E944E06D3CF0E94B3
:1030C0004E06DACF0E944E06E2CF84EF91E00E94D6
:1030D00045066DCB8BEF91E00E94450670CB82E0F8
:1030E00092E00E94450673CB89E092E00E9445067B
:1030F00076CB80E192E00E94450679CB882D90E066
:103100000596389EA001399E500D11245B834A8399
:10311000CA018C509E4FD80151962C9120FF4AC075
:103120000E944B078A819B8185509E4FF80121891F
:1031300021FF43C00E944B078A819B818E5F9D4F78
:10314000D80151962C9122FF3BC00E944B078A81E7
:103150009B81875F9D4FF801218923FF34C00E9426
:103160004B078A819B81805F9D4FD80151962C919E
:1031700024FF2CC00E944B078A819B81895E9D4F52
:10318000F801218925FF25C00E944B078A819B8178
:10319000825E9D4FD80151962C9126FF1DC00E9442
:1031A0004B078A819B818B5D9D4FF801218927FF09
:1031B000A2CF1BCB0E944506B5CF0E944506BCCFCF
:1031C0000E944506C4CF0E944506CBCF0E9445060B
:1031D000D3CF0E944506DACF0E944506E2CFE1999F
:1031E000FECF9FBB8EBBE09A99278DB30895262F03
:1031F000E199FECF9FBB8EBBE09A01970DB20216FC
:1032000031F02DBB0FB6F894E29AE19A0FBE089503
:10321000262FE199FECF9FBB8EBB2DBB0FB6F89436
:10322000E29AE19A0FBE0196089597FB072E16F4D5
:10323000009407D077FD09D00E94321907FC05D011
:103240003EF4909581959F4F0895709561957F4FBD
:103250000895EE0FFF1F0024001C0BBE0790F6918F
:10326000E02D0994AA1BBB1B51E107C0AA1FBB1F7D
:10327000A617B70710F0A61BB70B881F991F5A9502
:10328000A9F780959095BC01CD0108950F931F93E8
:10329000CF93DF93869F8001879F100D969F100D1F
:1032A0001124C8010E946219EC01009729F0A801BD
:1032B00070E060E00E94941ACE01DF91CF911F91DF
:1032C0000F9108950F931F93CF93DF938230910551
:1032D00010F482E090E0E091FD03F091FE0330E015
:1032E00020E0B0E0A0E0309799F42115310509F411
:1032F0004AC0281B390B24303105D8F58A819B81BF
:103300006115710589F1FB0193838283FE0111C070
:10331000408151810281138148175907E0F0481715
:10332000590799F4109761F012960C93129713961F
:103330001C933296CF01DF91CF911F910F91089589
:103340000093FD031093FE03F4CF2115310551F0D6
:103350004217530738F0A901DB019A01BD01DF01D3
:10336000F801C1CFEF01F9CF9093FE038093FD03E5
:10337000CDCFFE01E20FF31F8193919322503109CB
:1033800039832883D7CF2091FB033091FC03232B73
:1033900041F420915001309151013093FC0320936E
:1033A000FB0320914E0130914F012115310541F46D
:1033B0002DB73EB74091520150915301241B350B5C
:1033C000E091FB03F091FC03E217F307A0F42E1B3E
:1033D0003F0B2817390778F0AC014E5F5F4F241779
:1033E000350748F04E0F5F1F5093FC034093FB03DB
:1033F000819391939FCFF0E0E0E09CCFCF93DF9358
:103400000097E9F0FC01329713821282A091FD032C
:10341000B091FE03ED0130E020E01097A1F420818F
:103420003181820F931F2091FB033091FC032817F9
:10343000390709F061C0F093FC03E093FB03DF91CF
:10344000CF910895EA01CE17DF07E8F54A815B8145
:103450009E0141155105B1F7E901FB83EA834991CA
:103460005991C40FD51FEC17FD0761F4808191813C
:103470000296840F951FE901998388838281938145
:103480009B838A83F0E0E0E012968D919C911397E4
:103490000097B9F52D913C911197CD010296820FBD
:1034A000931F2091FB033091FC032817390739F64D
:1034B000309751F51092FE031092FD03B093FC0378
:1034C000A093FB03BCCFD383C28340815181840F7F
:1034D000951FC817D90761F44E5F5F4F88819981A6
:1034E000480F591F518340838A819B819383828334
:1034F0002115310509F0B0CFF093FE03E093FD03F1
:103500009ECFFD01DC01C0CF13821282D7CFFB0119
:10351000DC0104C08D910190801921F4415050408C
:10352000C8F7881B990B0895DC0101C06D934150C9
:0A3530005040E0F70895F894FFCF33
:10353A001FFF1EFF1DFF1CFF1BFF1AFF19FF18FFAD
:10354A0017FF16FF15FF14FF13FF12FF11FF10FFDD
:10355A000FFF0EFF0DFF0CFF0BFF0AFF09FF08FF0D
:10356A0007FF06FF05FF04FF03FF02FF01FF4604F2
:10357A000000000000000000000000000000000041
:10358A00FF0380003C013A0138013601340132015F
:10359A0030012E012C012A012801260124012201D1
:1035AA0020011E011C011A01180116011401120141
:1035BA0010010E010C010A010801060104010201B1
:0235CA000001FE
:00000001FF
